:100000000C9434000C9446000C9446000C9446006A
:100010000C9446000C9446000C9446000C94460048
:100020000C9446000C9446000C9446000C94460038
:100030000C9446000C9446000C9446000C94460028
:100040000C9446000C9446000C9446000C94460018
:100050000C9446000C9446000C9446000C94460008
:100060000C9446000C94460011241FBECFEFD8E03C
:10007000DEBFCDBF21E0A0E0B1E001C01D92A23003
:10008000B207E1F70E948E000C9438010C94000036
:1000900084B5836884BD85B5836085BD089584B5C6
:1000A0008E7784BD85B58C7F85BD089584B18F60C2
:1000B00084B987B18F6087B98AB180688AB98AB1FB
:1000C00080648AB98AB18B7F8AB98AB1877F8AB9FD
:1000D0008AB18D7F8AB98BB182608BB98BB1846014
:1000E0008BB98BB188608BB9089589B182700895FE
:1000F00089B18470089589B188700895883068F452
:1001000021E030E0A90102C0440F551F8A95E2F7B3
:10011000CA0180959BB189238BB908950E9456002E
:100120000E947500882371F0809101018F5F809398
:1001300001012FEF82E597E0215080409040E1F7E8
:1001400000C000000E9478008823A1F08091000187
:100150008F5F809300012FEF80E792E02150804075
:100160009040E1F700C00000809100018A3010F05B
:10017000109200010E947B008823B1F08091000161
:100180008150809300012FEF80E792E02150804062
:100190009040E1F700C000008091000180910001D3
:1001A0008A3010F010920001909101018BEA989F23
:1001B000812D11248695282F220F820F98130DC0B0
:1001C0000E944F00809100018F7085B918B88BB1E3
:1001D00080688BB98BB18F7B8BB9909101018BEAD1
:1001E000989F812D11248695282F220F820F981B0E
:1001F000913061F40E944F0087E00E947E00809160
:10020000000188B915B88BB18F7B8BB99091010132
:100210008BEA989F812D11248695282F220F820F1B
:10022000981B923009F07CCF8091000181110EC0A3
:100230000E944F008BB180688BB98BB180648BB901
:1002400015B818B88BB18F7B8BB96ACF0E94480064
:100250008BB180688BB98BB180648BB980910001C0
:1002600099E1899F802D112487BD15B818B858CF02
:04027000F894FFCF30
:00000001FF
